{
	"Practice/state.sol": {
		"state": {
			"abi": [
				{
					"inputs": [],
					"stateMutability": "nonpayable",
					"type": "constructor"
				},
				{
					"inputs": [],
					"name": "age",
					"outputs": [
						{
							"internalType": "uint256",
							"name": "",
							"type": "uint256"
						}
					],
					"stateMutability": "view",
					"type": "function"
				},
				{
					"inputs": [],
					"name": "score",
					"outputs": [
						{
							"internalType": "uint256",
							"name": "",
							"type": "uint256"
						}
					],
					"stateMutability": "view",
					"type": "function"
				},
				{
					"inputs": [],
					"name": "setScore",
					"outputs": [],
					"stateMutability": "nonpayable",
					"type": "function"
				},
				{
					"inputs": [],
					"name": "store",
					"outputs": [
						{
							"internalType": "uint256",
							"name": "",
							"type": "uint256"
						}
					],
					"stateMutability": "pure",
					"type": "function"
				}
			],
			"devdoc": {
				"kind": "dev",
				"methods": {},
				"version": 1
			},
			"evm": {
				"assembly": "    /* \"Practice/state.sol\":148:962  contract state{... */\n  mstore(0x40, 0x80)\n    /* \"Practice/state.sol\":243:245  15 */\n  0x0f\n    /* \"Practice/state.sol\":225:245  uint public age = 15 */\n  0x00\n  sstore\n    /* \"Practice/state.sol\":391:435  constructor() {... */\n  callvalue\n  dup1\n  iszero\n  tag_1\n  jumpi\n  0x00\n  dup1\n  revert\ntag_1:\n  pop\n    /* \"Practice/state.sol\":424:427  112 */\n  0x70\n    /* \"Practice/state.sol\":416:421  score */\n  0x01\n    /* \"Practice/state.sol\":416:427  score = 112 */\n  dup2\n  swap1\n  sstore\n  pop\n    /* \"Practice/state.sol\":148:962  contract state{... */\n  dataSize(sub_0)\n  dup1\n  dataOffset(sub_0)\n  0x00\n  codecopy\n  0x00\n  return\nstop\n\nsub_0: assembly {\n        /* \"Practice/state.sol\":148:962  contract state{... */\n      mstore(0x40, 0x80)\n      callvalue\n      dup1\n      iszero\n      tag_1\n      jumpi\n      0x00\n      dup1\n      revert\n    tag_1:\n      pop\n      jumpi(tag_2, lt(calldatasize, 0x04))\n      shr(0xe0, calldataload(0x00))\n      dup1\n      0x054a7018\n      eq\n      tag_3\n      jumpi\n      dup1\n      0x262a9dff\n      eq\n      tag_4\n      jumpi\n      dup1\n      0x975057e7\n      eq\n      tag_5\n      jumpi\n      dup1\n      0xefedc669\n      eq\n      tag_6\n      jumpi\n    tag_2:\n      0x00\n      dup1\n      revert\n        /* \"Practice/state.sol\":490:546  function setScore() public{... */\n    tag_3:\n      tag_7\n      tag_8\n      jump\t// in\n    tag_7:\n      stop\n        /* \"Practice/state.sol\":225:245  uint public age = 15 */\n    tag_4:\n      tag_9\n      tag_10\n      jump\t// in\n    tag_9:\n      mload(0x40)\n      tag_11\n      swap2\n      swap1\n      tag_12\n      jump\t// in\n    tag_11:\n      mload(0x40)\n      dup1\n      swap2\n      sub\n      swap1\n      return\n        /* \"Practice/state.sol\":636:959  function store() pure public returns (uint){//pure is used to show Neither this fun changes state vars, nor it reads them... */\n    tag_5:\n      tag_13\n      tag_14\n      jump\t// in\n    tag_13:\n      mload(0x40)\n      tag_15\n      swap2\n      swap1\n      tag_12\n      jump\t// in\n    tag_15:\n      mload(0x40)\n      dup1\n      swap2\n      sub\n      swap1\n      return\n        /* \"Practice/state.sol\":311:328  uint public score */\n    tag_6:\n      tag_16\n      tag_17\n      jump\t// in\n    tag_16:\n      mload(0x40)\n      tag_18\n      swap2\n      swap1\n      tag_12\n      jump\t// in\n    tag_18:\n      mload(0x40)\n      dup1\n      swap2\n      sub\n      swap1\n      return\n        /* \"Practice/state.sol\":490:546  function setScore() public{... */\n    tag_8:\n        /* \"Practice/state.sol\":535:538  102 */\n      0x66\n        /* \"Practice/state.sol\":527:532  score */\n      0x01\n        /* \"Practice/state.sol\":527:538  score = 102 */\n      dup2\n      swap1\n      sstore\n      pop\n        /* \"Practice/state.sol\":490:546  function setScore() public{... */\n      jump\t// out\n        /* \"Practice/state.sol\":225:245  uint public age = 15 */\n    tag_10:\n      sload(0x00)\n      dup2\n      jump\t// out\n        /* \"Practice/state.sol\":636:959  function store() pure public returns (uint){//pure is used to show Neither this fun changes state vars, nor it reads them... */\n    tag_14:\n        /* \"Practice/state.sol\":674:678  uint */\n      0x00\n        /* \"Practice/state.sol\":767:777  uint marks */\n      dup1\n        /* \"Practice/state.sol\":780:782  90 */\n      0x5a\n        /* \"Practice/state.sol\":767:782  uint marks = 90 */\n      swap1\n      pop\n        /* \"Practice/state.sol\":813:839  string memory student_name */\n      0x00\n        /* \"Practice/state.sol\":813:852  string memory student_name = \"Bheesham\" */\n      mload(0x40)\n      dup1\n      0x40\n      add\n      0x40\n      mstore\n      dup1\n      0x08\n      dup2\n      mstore\n      0x20\n      add\n      0x426865657368616d000000000000000000000000000000000000000000000000\n      dup2\n      mstore\n      pop\n      swap1\n      pop\n        /* \"Practice/state.sol\":946:951  marks */\n      dup2\n        /* \"Practice/state.sol\":939:951  return marks */\n      swap3\n      pop\n      pop\n      pop\n        /* \"Practice/state.sol\":636:959  function store() pure public returns (uint){//pure is used to show Neither this fun changes state vars, nor it reads them... */\n      swap1\n      jump\t// out\n        /* \"Practice/state.sol\":311:328  uint public score */\n    tag_17:\n      sload(0x01)\n      dup2\n      jump\t// out\n        /* \"#utility.yul\":7:84   */\n    tag_21:\n        /* \"#utility.yul\":44:51   */\n      0x00\n        /* \"#utility.yul\":73:78   */\n      dup2\n        /* \"#utility.yul\":62:78   */\n      swap1\n      pop\n        /* \"#utility.yul\":7:84   */\n      swap2\n      swap1\n      pop\n      jump\t// out\n        /* \"#utility.yul\":90:208   */\n    tag_22:\n        /* \"#utility.yul\":177:201   */\n      tag_26\n        /* \"#utility.yul\":195:200   */\n      dup2\n        /* \"#utility.yul\":177:201   */\n      tag_21\n      jump\t// in\n    tag_26:\n        /* \"#utility.yul\":172:175   */\n      dup3\n        /* \"#utility.yul\":165:202   */\n      mstore\n        /* \"#utility.yul\":90:208   */\n      pop\n      pop\n      jump\t// out\n        /* \"#utility.yul\":214:436   */\n    tag_12:\n        /* \"#utility.yul\":307:311   */\n      0x00\n        /* \"#utility.yul\":345:347   */\n      0x20\n        /* \"#utility.yul\":334:343   */\n      dup3\n        /* \"#utility.yul\":330:348   */\n      add\n        /* \"#utility.yul\":322:348   */\n      swap1\n      pop\n        /* \"#utility.yul\":358:429   */\n      tag_28\n        /* \"#utility.yul\":426:427   */\n      0x00\n        /* \"#utility.yul\":415:424   */\n      dup4\n        /* \"#utility.yul\":411:428   */\n      add\n        /* \"#utility.yul\":402:408   */\n      dup5\n        /* \"#utility.yul\":358:429   */\n      tag_22\n      jump\t// in\n    tag_28:\n        /* \"#utility.yul\":214:436   */\n      swap3\n      swap2\n      pop\n      pop\n      jump\t// out\n\n    auxdata: 0xa264697066735822122036db8013b543e8dd10d342d96df80355bd30a0588f8065873d01925a7d5c05fa64736f6c63430008120033\n}\n",
				"bytecode": {
					"linkReferences": {},
					"object": "6080604052600f60005534801561001557600080fd5b50607060018190555061017e8061002d6000396000f3fe608060405234801561001057600080fd5b506004361061004c5760003560e01c8063054a701814610051578063262a9dff1461005b578063975057e714610079578063efedc66914610097575b600080fd5b6100596100b5565b005b6100636100bf565b604051610070919061012d565b60405180910390f35b6100816100c5565b60405161008e919061012d565b60405180910390f35b61009f61010e565b6040516100ac919061012d565b60405180910390f35b6066600181905550565b60005481565b600080605a905060006040518060400160405280600881526020017f426865657368616d0000000000000000000000000000000000000000000000008152509050819250505090565b60015481565b6000819050919050565b61012781610114565b82525050565b6000602082019050610142600083018461011e565b9291505056fea264697066735822122036db8013b543e8dd10d342d96df80355bd30a0588f8065873d01925a7d5c05fa64736f6c63430008120033",
					"opcodes": "PUSH1 0x80 PUSH1 0x40 MSTORE PUSH1 0xF PUSH1 0x0 SSTORE CALLVALUE DUP1 ISZERO PUSH2 0x15 JUMPI PUSH1 0x0 DUP1 REVERT JUMPDEST POP PUSH1 0x70 PUSH1 0x1 DUP2 SWAP1 SSTORE POP PUSH2 0x17E DUP1 PUSH2 0x2D PUSH1 0x0 CODECOPY PUSH1 0x0 RETURN INVALID PUSH1 0x80 PUSH1 0x40 MSTORE CALLVALUE DUP1 ISZERO PUSH2 0x10 JUMPI PUSH1 0x0 DUP1 REVERT JUMPDEST POP PUSH1 0x4 CALLDATASIZE LT PUSH2 0x4C JUMPI PUSH1 0x0 CALLDATALOAD PUSH1 0xE0 SHR DUP1 PUSH4 0x54A7018 EQ PUSH2 0x51 JUMPI DUP1 PUSH4 0x262A9DFF EQ PUSH2 0x5B JUMPI DUP1 PUSH4 0x975057E7 EQ PUSH2 0x79 JUMPI DUP1 PUSH4 0xEFEDC669 EQ PUSH2 0x97 JUMPI JUMPDEST PUSH1 0x0 DUP1 REVERT JUMPDEST PUSH2 0x59 PUSH2 0xB5 JUMP JUMPDEST STOP JUMPDEST PUSH2 0x63 PUSH2 0xBF JUMP JUMPDEST PUSH1 0x40 MLOAD PUSH2 0x70 SWAP2 SWAP1 PUSH2 0x12D JUMP JUMPDEST PUSH1 0x40 MLOAD DUP1 SWAP2 SUB SWAP1 RETURN JUMPDEST PUSH2 0x81 PUSH2 0xC5 JUMP JUMPDEST PUSH1 0x40 MLOAD PUSH2 0x8E SWAP2 SWAP1 PUSH2 0x12D JUMP JUMPDEST PUSH1 0x40 MLOAD DUP1 SWAP2 SUB SWAP1 RETURN JUMPDEST PUSH2 0x9F PUSH2 0x10E JUMP JUMPDEST PUSH1 0x40 MLOAD PUSH2 0xAC SWAP2 SWAP1 PUSH2 0x12D JUMP JUMPDEST PUSH1 0x40 MLOAD DUP1 SWAP2 SUB SWAP1 RETURN JUMPDEST PUSH1 0x66 PUSH1 0x1 DUP2 SWAP1 SSTORE POP JUMP JUMPDEST PUSH1 0x0 SLOAD DUP2 JUMP JUMPDEST PUSH1 0x0 DUP1 PUSH1 0x5A SWAP1 POP PUSH1 0x0 PUSH1 0x40 MLOAD DUP1 PUSH1 0x40 ADD PUSH1 0x40 MSTORE DUP1 PUSH1 0x8 DUP2 MSTORE PUSH1 0x20 ADD PUSH32 0x426865657368616D000000000000000000000000000000000000000000000000 DUP2 MSTORE POP SWAP1 POP DUP2 SWAP3 POP POP POP SWAP1 JUMP JUMPDEST PUSH1 0x1 SLOAD DUP2 JUMP JUMPDEST PUSH1 0x0 DUP2 SWAP1 POP SWAP2 SWAP1 POP JUMP JUMPDEST PUSH2 0x127 DUP2 PUSH2 0x114 JUMP JUMPDEST DUP3 MSTORE POP POP JUMP JUMPDEST PUSH1 0x0 PUSH1 0x20 DUP3 ADD SWAP1 POP PUSH2 0x142 PUSH1 0x0 DUP4 ADD DUP5 PUSH2 0x11E JUMP JUMPDEST SWAP3 SWAP2 POP POP JUMP INVALID LOG2 PUSH5 0x6970667358 0x22 SLT KECCAK256 CALLDATASIZE 0xDB DUP1 SGT 0xB5 NUMBER 0xE8 0xDD LT 0xD3 TIMESTAMP 0xD9 PUSH14 0xF80355BD30A0588F8065873D0192 GAS PUSH30 0x5C05FA64736F6C6343000812003300000000000000000000000000000000 "
				},
				"gasEstimates": {
					"creation": {
						"codeDepositCost": "76400",
						"executionCost": "44343",
						"totalCost": "120743"
					},
					"external": {
						"age()": "2429",
						"score()": "2473",
						"setScore()": "22236",
						"store()": "438"
					}
				},
				"methodIdentifiers": {
					"age()": "262a9dff",
					"score()": "efedc669",
					"setScore()": "054a7018",
					"store()": "975057e7"
				}
			},
			"storageLayout": {
				"storage": [
					{
						"astId": 4,
						"contract": "Practice/state.sol:state",
						"label": "age",
						"offset": 0,
						"slot": "0",
						"type": "t_uint256"
					},
					{
						"astId": 6,
						"contract": "Practice/state.sol:state",
						"label": "score",
						"offset": 0,
						"slot": "1",
						"type": "t_uint256"
					}
				],
				"types": {
					"t_uint256": {
						"encoding": "inplace",
						"label": "uint256",
						"numberOfBytes": "32"
					}
				}
			},
			"userdoc": {
				"kind": "user",
				"methods": {},
				"version": 1
			}
		}
	}
}