{
	"data": {
		"bytecode": {
			"linkReferences": {},
			"object": "60806040526080600160006101000a81548161ffff021916908360010b61ffff16021790555060ff600160026101000a81548160ff021916908360ff16021790555034801561004d57600080fd5b50604051610227380380610227833981810160405281019061006f91906100c3565b808261007b9190610132565b6000819055505050610166565b600080fd5b6000819050919050565b6100a08161008d565b81146100ab57600080fd5b50565b6000815190506100bd81610097565b92915050565b600080604083850312156100da576100d9610088565b5b60006100e8858286016100ae565b92505060206100f9858286016100ae565b9150509250929050565b7f4e487b7100000000000000000000000000000000000000000000000000000000600052601160045260246000fd5b600061013d8261008d565b91506101488361008d565b92508282019050808211156101605761015f610103565b5b92915050565b60b3806101746000396000f3fe6080604052348015600f57600080fd5b506004361060285760003560e01c806306661abd14602d575b600080fd5b60336047565b604051603e91906064565b60405180910390f35b60005481565b6000819050919050565b605e81604d565b82525050565b6000602082019050607760008301846057565b9291505056fea2646970667358221220729da86a6bad6bf765862cc8e019135184dab4a6ccec0c23df3721494359bfbc64736f6c63430008120033",
			"opcodes": "PUSH1 0x80 PUSH1 0x40 MSTORE PUSH1 0x80 PUSH1 0x1 PUSH1 0x0 PUSH2 0x100 EXP DUP2 SLOAD DUP2 PUSH2 0xFFFF MUL NOT AND SWAP1 DUP4 PUSH1 0x1 SIGNEXTEND PUSH2 0xFFFF AND MUL OR SWAP1 SSTORE POP PUSH1 0xFF PUSH1 0x1 PUSH1 0x2 PUSH2 0x100 EXP DUP2 SLOAD DUP2 PUSH1 0xFF MUL NOT AND SWAP1 DUP4 PUSH1 0xFF AND MUL OR SWAP1 SSTORE POP CALLVALUE DUP1 ISZERO PUSH2 0x4D JUMPI PUSH1 0x0 DUP1 REVERT JUMPDEST POP PUSH1 0x40 MLOAD PUSH2 0x227 CODESIZE SUB DUP1 PUSH2 0x227 DUP4 CODECOPY DUP2 DUP2 ADD PUSH1 0x40 MSTORE DUP2 ADD SWAP1 PUSH2 0x6F SWAP2 SWAP1 PUSH2 0xC3 JUMP JUMPDEST DUP1 DUP3 PUSH2 0x7B SWAP2 SWAP1 PUSH2 0x132 JUMP JUMPDEST PUSH1 0x0 DUP2 SWAP1 SSTORE POP POP POP PUSH2 0x166 JUMP JUMPDEST PUSH1 0x0 DUP1 REVERT JUMPDEST PUSH1 0x0 DUP2 SWAP1 POP SWAP2 SWAP1 POP JUMP JUMPDEST PUSH2 0xA0 DUP2 PUSH2 0x8D JUMP JUMPDEST DUP2 EQ PUSH2 0xAB JUMPI PUSH1 0x0 DUP1 REVERT JUMPDEST POP JUMP JUMPDEST PUSH1 0x0 DUP2 MLOAD SWAP1 POP PUSH2 0xBD DUP2 PUSH2 0x97 JUMP JUMPDEST SWAP3 SWAP2 POP POP JUMP JUMPDEST PUSH1 0x0 DUP1 PUSH1 0x40 DUP4 DUP6 SUB SLT ISZERO PUSH2 0xDA JUMPI PUSH2 0xD9 PUSH2 0x88 JUMP JUMPDEST JUMPDEST PUSH1 0x0 PUSH2 0xE8 DUP6 DUP3 DUP7 ADD PUSH2 0xAE JUMP JUMPDEST SWAP3 POP POP PUSH1 0x20 PUSH2 0xF9 DUP6 DUP3 DUP7 ADD PUSH2 0xAE JUMP JUMPDEST SWAP2 POP POP SWAP3 POP SWAP3 SWAP1 POP JUMP JUMPDEST PUSH32 0x4E487B7100000000000000000000000000000000000000000000000000000000 PUSH1 0x0 MSTORE PUSH1 0x11 PUSH1 0x4 MSTORE PUSH1 0x24 PUSH1 0x0 REVERT JUMPDEST PUSH1 0x0 PUSH2 0x13D DUP3 PUSH2 0x8D JUMP JUMPDEST SWAP2 POP PUSH2 0x148 DUP4 PUSH2 0x8D JUMP JUMPDEST SWAP3 POP DUP3 DUP3 ADD SWAP1 POP DUP1 DUP3 GT ISZERO PUSH2 0x160 JUMPI PUSH2 0x15F PUSH2 0x103 JUMP JUMPDEST JUMPDEST SWAP3 SWAP2 POP POP JUMP JUMPDEST PUSH1 0xB3 DUP1 PUSH2 0x174 PUSH1 0x0 CODECOPY PUSH1 0x0 RETURN INVALID PUSH1 0x80 PUSH1 0x40 MSTORE CALLVALUE DUP1 ISZERO PUSH1 0xF JUMPI PUSH1 0x0 DUP1 REVERT JUMPDEST POP PUSH1 0x4 CALLDATASIZE LT PUSH1 0x28 JUMPI PUSH1 0x0 CALLDATALOAD PUSH1 0xE0 SHR DUP1 PUSH4 0x6661ABD EQ PUSH1 0x2D JUMPI JUMPDEST PUSH1 0x0 DUP1 REVERT JUMPDEST PUSH1 0x33 PUSH1 0x47 JUMP JUMPDEST PUSH1 0x40 MLOAD PUSH1 0x3E SWAP2 SWAP1 PUSH1 0x64 JUMP JUMPDEST PUSH1 0x40 MLOAD DUP1 SWAP2 SUB SWAP1 RETURN JUMPDEST PUSH1 0x0 SLOAD DUP2 JUMP JUMPDEST PUSH1 0x0 DUP2 SWAP1 POP SWAP2 SWAP1 POP JUMP JUMPDEST PUSH1 0x5E DUP2 PUSH1 0x4D JUMP JUMPDEST DUP3 MSTORE POP POP JUMP JUMPDEST PUSH1 0x0 PUSH1 0x20 DUP3 ADD SWAP1 POP PUSH1 0x77 PUSH1 0x0 DUP4 ADD DUP5 PUSH1 0x57 JUMP JUMPDEST SWAP3 SWAP2 POP POP JUMP INVALID LOG2 PUSH5 0x6970667358 0x22 SLT KECCAK256 PUSH19 0x9DA86A6BAD6BF765862CC8E019135184DAB4A6 0xCC 0xEC 0xC 0x23 0xDF CALLDATACOPY 0x21 0x49 NUMBER MSIZE 0xBF 0xBC PUSH5 0x736F6C6343 STOP ADDMOD SLT STOP CALLER "
		},
		"gasEstimates": {
			"creation": {
				"codeDepositCost": "35800",
				"executionCost": "infinite",
				"totalCost": "infinite"
			},
			"external": {
				"count()": "2407"
			}
		},
		"methodIdentifiers": {
			"count()": "06661abd"
		}
	},
	"abi": [
		{
			"inputs": [
				{
					"internalType": "uint256",
					"name": "a",
					"type": "uint256"
				},
				{
					"internalType": "uint256",
					"name": "b",
					"type": "uint256"
				}
			],
			"stateMutability": "nonpayable",
			"type": "constructor"
		},
		{
			"inputs": [],
			"name": "count",
			"outputs": [
				{
					"internalType": "uint256",
					"name": "",
					"type": "uint256"
				}
			],
			"stateMutability": "view",
			"type": "function"
		}
	]
}